:100000000C9437000C945F000C945F000C945F001C
:100010000C945F000C945F000C945F000C945F00E4
:100020000C945F000C945F000C945F000C945F00D4
:100030000C945F000C945F000C945F000C945F00C4
:100040000C942D050C945F000C94DC030C945F0061
:100050000C945F000C945F000C945F000C945F00A4
:100060000C945F000C945F00A602640395041124B5
:100070001FBECFEFD8E0DEBFCDBF11E0A0E0B1E002
:10008000E2EAFCE002C005900D92A831B107D9F771
:1000900011E0A8E1B1E001C01D92A436B107E1F77B
:1000A00010E0CEE6D0E004C02297FE010E944B068D
:1000B000C836D107C9F70E94D5030C944F060C949B
:1000C00000002C98289880911901482F50E027E0D3
:1000D00030E05C98CA01022E02C0959587950A947B
:1000E000E2F780FF02C0289A01C028985C9A21504C
:1000F00030408FEF2F3F380761F72C9A0895249AEC
:10010000579A549A209A109219010E9461005F98A0
:100110000895EF92FF920F93DF93CF9300D0CDB766
:10012000DEB79A8389837B01042F88E191E00E94E6
:100130007F00E981FA81F182E08202830130C1F41B
:1001400080911901817E8093190188E191E00E94DC
:10015000610083EA8093B0000093B1008FEF809339
:10016000B4008093B300539A5B9A239A2B9A16C0DB
:100170000230A1F4809119018E718093190188E1F8
:1001800091E00E94610083EA84BD8FEF88BD87BD46
:100190008AB180668AB98BB180668BB90F900F9057
:1001A000CF91DF910F91FF90EF9008950F931F93E0
:1001B0008C01FC0180819181689F9001699F300DC5
:1001C000789F300D112440E050E060E077E883E94B
:1001D00093E00E941A06F8012383348345835683F3
:1001E00017821086118612861F910F910895FC01C7
:1001F0008281813051F480911901817E80931901AF
:1002000088E191E00E9461000895823049F4809174
:1002100019018E718093190188E191E00E946100BB
:1002200008958F929F92AF92BF92CF92DF92EF92FA
:10023000FF920F931F93CF93DF93062FE42EFC01C1
:100240009280F1E09F1669F4F090B3001091B40031
:1002500064E0A62E52E0B52E48E0D42E30E1C32E45
:100260000FC082E0981611F000E062C1F7B418B533
:1002700020E2A22EBB24B39490E8D92E80E4C82EAD
:1002800080901901E82DF0E04A2D50E0CB2DD0E010
:100290009E01242B352BC9018E239F2382179307A0
:1002A00011F420E138C0AD2DB0E09D012C2B3D2B89
:1002B000C9018E239F238217930711F420E32BC0DB
:1002C0006C2D70E09B012A2B3B2BC9018E239F23B1
:1002D0008217930711F420E51EC09B01242B352BB8
:1002E000C9018E239F238217930711F420E713C0BF
:1002F0004E235F23452B11F020E00DC0CE23DF23DA
:10030000CD2B11F020E207C0AE23BF23AB2B11F49D
:1003100020E601C020E4E1E0EE1631F4822F829560
:100320008F7080FF13C01EC0F2E0EF16C1F4822F61
:1003300082958F7080FD0AC015C080599F4F282F6D
:100340002F7700E01FEFFF24FA94B3C0822F90E0D4
:10035000013011F48096F3CF805A9F4FF0CF83E0A5
:10036000E81631F4822F90E0013039F74096E7CF5C
:10037000E4E0EE1611F000E09CC0013009F04CC042
:10038000203110F4205F2F77FFEFFF1629F4822F22
:1003900082958370833039F01F3F39F4822F829524
:1003A0008370813011F4205E2F77203111F02035D9
:1003B000C9F41F3F11F480E103C0812F82958F7033
:1003C0008F5F61E10E94D905092F903111F41FEF71
:1003D00003C0192F1295107FF12EF094003109F00F
:1003E00068C018C01F3F11F480E103C0812F8295BF
:1003F0008F70805F61E10E94D905092F903111F45F
:100400001FEF03C0192F1295107FF12EF0940023D7
:1004100009F04FC0205E4CC08FEFF81629F4822FF0
:1004200082958370813039F01F3F39F4822F829595
:100430008370833011F4205A2F77822F82958F702A
:1004400080FD02C020592F77203111F02035C1F4F2
:100450001F3F11F480E103C0812F82958F70805F70
:1004600061E10E94D905092F903111F41FEF03C0FB
:10047000192F1295107FF12EF0940023D1F417C09C
:100480001F3F11F480E103C0812F82958F708F5F31
:1004900061E10E94D905092F903111F41FEF03C0CB
:1004A000192F1295107FF12EF094003111F4205A7B
:1004B0002F77E1E09E1629F4F092B3001093B40078
:1004C00005C0F2E09F1611F418BDF7BC4B2D4A2968
:1004D0003C2D3D29932F942B9095982190931901B1
:1004E000822F82958F708330B1F0843028F4813070
:1004F00071F0823070F409C0853081F0853060F091
:10050000863079F0873081F40BC09A290BC0942B88
:1005100009C09B2907C0DB289D2904C0932B02C07A
:10052000CA289C299093190188E191E00E946100FA
:10053000802FDF91CF911F910F91FF90EF90DF906F
:10054000CF90BF90AF909F908F90089508955F9245
:100550006F927F928F929F92AF92BF92CF92DF92D3
:10056000EF92FF920F931F93CF93DF93EC016B01F8
:10057000542EA22EEB80FC800D811E8123E0A2165A
:10058000D1F416950795F794E794C801B70128EEC2
:1005900033E040E050E00E94F80539014A01C8010B
:1005A000B70128EE33E040E050E00E94F8057B01FF
:1005B0008C01BB2440C084E0A81639F7E4E016950E
:1005C0000795F794E794EA95D1F774E0CC0CDD1C1D
:1005D0007A95E1F7DACFCE01652D4A2D0E941101FF
:1005E000B82EB301C4010E9475058F819885A98535
:1005F000BA858E0D9F1DA01FB11F8F839887A98775
:10060000BA87885E9340A040B04090F061E070E00F
:1006100080E090E00E9475058F819885A985BA8554
:10062000885E9340A040B0408F839887A987BA879F
:100630000894C108D108C114D10469F684E0A81651
:1006400099F52DC0CE01652D44E00E941101B82E10
:10065000B301C4010E9475058F819885A985BA856B
:100660008E0D9F1DA01FB11F8F839887A987BA8702
:10067000885E9340A040B04090F061E070E080E080
:1006800090E00E9475058F819885A985BA85885E5E
:100690009340A040B0408F839887A987BA87BB203A
:1006A00019F080E1B81671F6DF91CF911F910F918B
:1006B000FF90EF90DF90CF90BF90AF909F908F9082
:1006C0007F906F905F9008958AE191E060E370E021
:1006D00042E00E94890008950F931F930AE111E000
:1006E000C80164E670E041E021E00E94A702C80171
:1006F00064E670E042E021E00E94A702C80164E6DF
:1007000070E041E022E00E94A702C80164E670E0C8
:1007100042E022E00E94A702C80164E670E041E0E6
:1007200023E00E94A702C80164E670E042E023E0F3
:100730000E94A702C80164E670E041E024E00E9444
:10074000A702C80164E670E042E024E00E94A7022C
:100750001F910F9108950F931F9309E411E0C801B1
:1007600040E855E260E070E00E941904C80160E0D2
:1007700071E00E9422050AE111E0C8016AE070E020
:100780000E94D600C80164E670E041E021E00E94CA
:10079000A702C8010E94F70068EE73E080E090E0D5
:1007A0000E9475051F910F9108950E949F050E9458
:1007B000AB030E946C03FDCF1F920F920FB60F92F6
:1007C00011242F933F934F935F936F937F938F9356
:1007D0009F93AF93BF93EF93FF934091C600E09137
:1007E0004501F0914601CF01019660E270E00E9460
:1007F000E5059C0180914701909148012817390730
:1008000039F0EB5DFE4F4083309346012093450164
:10081000FF91EF91BF91AF919F918F917F916F91D8
:100820005F914F913F912F910F900FBE0F901F90AE
:100830001895AF92BF92CF92DF92EF92FF920F93F3
:100840001F93CF93DF936C017A018B01DC01149627
:10085000AD90BC901597CB01BA0122E030E040E0AA
:1008600050E00E941A06205C3D4B404F5F4FCA018A
:10087000B901A80197010E941A06C901DA0101977E
:10088000A109B109292F3A2F4B2F552747FD5A951A
:100890000196A11DB11DE5012883E601EE81FF81CE
:1008A00081508083EA85FB85208141E050E0CA01C8
:1008B0000E8402C0880F991F0A94E2F7282B208328
:1008C000EA85FB852081CA010F8402C0880F991F29
:1008D0000A94E2F7282B2083EA85FB85808108882B
:1008E00002C0440F551F0A94E2F7842B8083DF91E6
:1008F000CF911F910F91FF90EF90DF90CF90BF901D
:10090000AF900895FC01A085B18521898C9190E07C
:10091000022E02C0959587950A94E2F780FFF6CFE4
:100920000484F585E02D6083089582E191E0909341
:100930004A018093490185E291E090934C018093B4
:100940004B0185EC90E090934E0180934D0184EC37
:1009500090E09093500180934F0180EC90E0909351
:1009600052018093510181EC90E090935401809367
:10097000530186EC90E0909356018093550184E0FA
:100980008093570183E08093580187E08093590159
:1009900085E080935A0108950F931F93CF93DF93BF
:1009A0008C01EB0109C02196D801ED91FC910190D9
:1009B000F081E02DC801099568816623A1F7DF91D8
:1009C000CF911F910F910895EF92FF920F931F9374
:1009D000CF93DF938C017B01EA010CC0D7016D91AD
:1009E0007D01D801ED91FC910190F081E02DC801CD
:1009F00009952197209791F7DF91CF911F910F9142
:100A0000FF90EF900895DC01ED91FC910280F3815D
:100A1000E02D099508950F931F938C01DC01ED9152
:100A2000FC910190F081E02D6DE00995D801ED91E8
:100A3000FC910190F081E02DC8016AE009951F91B9
:100A40000F9108950F931F938C010E940305C80115
:100A50000E940B051F910F9108951F920F920FB6E0
:100A60000F9211242F933F938F939F93AF93BF9334
:100A700080915F0190916001A0916101B09162014C
:100A8000309163010196A11DB11D232F2D5F2D37DC
:100A900020F02D570196A11DB11D20936301809375
:100AA0005F0190936001A0936101B0936201809116
:100AB0005B0190915C01A0915D01B0915E01019696
:100AC000A11DB11D80935B0190935C01A0935D011A
:100AD000B0935E01BF91AF919F918F913F912F9104
:100AE0000F900FBE0F901F901895EF92FF920F93EB
:100AF0001F937B018C018FB7F89440915F01509157
:100B0000600160916101709162018FBF2FB7F8940D
:100B100080915F0190916001A0916101B0916201AB
:100B20002FBF841B950BA60BB70BE816F9060A0717
:100B30001B0760F71F910F91FF90EF900895789435
:100B400084B5826084BD84B5816084BD85B58260D2
:100B500085BD85B5816085BDEEE6F0E08081816070
:100B60008083E1E8F0E08081826080838081816021
:100B70008083E0E8F0E0808181608083E1EBF0E059
:100B8000808184608083E0EBF0E0808181608083FD
:100B9000EAE7F0E0808184608083808182608083E6
:100BA0008081816080838081806880831092C10011
:100BB0000895991B79E004C0991F961708F0961BB9
:100BC000881F7A95C9F78095089597FB092E072607
:100BD0000AD077FD04D049D006D000201AF47095D1
:100BE00061957F4F0895F6F7909581959F4F0895F1
:100BF000A1E21A2EAA1BBB1BFD010DC0AA1FBB1F21
:100C0000EE1FFF1FA217B307E407F50720F0A21B92
:100C1000B30BE40BF50B661F771F881F991F1A94FF
:100C200069F760957095809590959B01AC01BD0129
:100C3000CF01089597FB092E05260ED057FD04D04D
:100C4000D7DF0AD0001C38F4509540953095219597
:100C50003F4F4F4F5F4F0895F6F7909580957095F1
:100C600061957F4F8F4F9F4F0895AA1BBB1B51E18A
:100C700007C0AA1FBB1FA617B70710F0A61BB70B0C
:100C8000881F991F5A95A9F780959095BC01CD01B1
:100C90000895EE0FFF1F0590F491E02D0994F8944C
:020CA000FFCF84
:100CA200537465707065722074657374210000005E
:080CB20000008204CC04E404FC
:00000001FF
