:100000000C9482000C94AA000C94AA000C94AA00F0
:100010000C94AA000C94AA000C94AA000C94AA00B8
:100020000C94AA000C94AA000C94AA000C94AA00A8
:100030000C94AA000C94AA000C94AA000C94AA0098
:100040000C94F4060C94AA000C9493040C94AA004B
:100050000C94AA000C94AA000C94AA000C94AA0078
:100060000C94AA000C94AA00590461046104610470
:100070006104610461046104610461046104610458
:100080006104610461046104610461046104610448
:100090006104610461046104610461046104610438
:1000A0006104610461046104610461046104610428
:1000B0006104610461046104610461046104610418
:1000C000610461046104610461040F0412041504F5
:1000D00018041B041E042104240427042A042D04EC
:1000E00030043304360439043C0461043F04420400
:1000F000450448044B044E04610451045404F102C5
:10010000AF037D0511241FBECFEFD8E0DEBFCDBF0A
:1001100011E0A0E0B1E0E0E3F0E102C005900D9253
:10012000AE32B107D9F711E0AEE2B1E001C01D92E5
:10013000AC37B107E1F710E0C4E0D1E004C022978A
:10014000FE010E941208CE3FD107C9F70E948C041D
:100150000C9416080C9400002C98289880912F017C
:10016000482F50E027E030E05C98CA01022E02C020
:10017000959587950A94E2F780FF02C0289A01C0FE
:1001800028985C9A215030408FEF2F3F380761F755
:100190002C9A0895249A579A549A209A10922F01D3
:1001A0000E94AC005F980895EF92FF920F93DF9347
:1001B000CF9300D0CDB7DEB79A8389837B01042F1C
:1001C0008EE291E00E94CA00E981FA81F182E08228
:1001D00002830130C1F480912F01817E80932F0131
:1001E0008EE291E00E94AC0083EA8093B00000931D
:1001F000B1008FEF8093B4008093B300539A5B9A61
:10020000239A2B9A16C00230A1F480912F018E718F
:1002100080932F018EE291E00E94AC0083EA84BDBE
:100220008FEF88BD87BD8AB180668AB98BB1806641
:100230008BB90F900F90CF91DF910F91FF90EF90BE
:1002400008950F931F938C01FC0180819181689F19
:100250009001699F300D789F300D112440E050E0EF
:1002600060E077E883E993E00E94E107F8012383E7
:1002700034834583568317821086118612861F9118
:100280000F910895FC018281813051F480912F01FA
:10029000817E80932F018EE291E00E94AC00089550
:1002A000823049F480912F018E7180932F018EE26C
:1002B00091E00E94AC0008958F929F92AF92BF92FE
:1002C000CF92DF92EF92FF920F931F93CF93DF9322
:1002D000062FE42EFC019280F1E09F1669F4F09065
:1002E000B3001091B40064E0A62E52E0B52E48E0B1
:1002F000D42E30E1C32E0FC082E0981611F000E03A
:1003000062C1F7B418B520E2A22EBB24B39490E8E2
:10031000D92E80E4C82E80902F01E82DF0E04A2DE0
:1003200050E0CB2DD0E09E01242B352BC9018E232C
:100330009F238217930711F420E138C0AD2DB0E060
:100340009D012C2B3D2BC9018E239F2382179307E0
:1003500011F420E32BC06C2D70E09B012A2B3B2B6A
:10036000C9018E239F238217930711F420E51EC035
:100370009B01242B352BC9018E239F2382179307C2
:1003800011F420E713C04E235F23452B11F020E02A
:100390000DC0CE23DF23CD2B11F020E207C0AE230A
:1003A000BF23AB2B11F420E601C020E4E1E0EE1600
:1003B00031F4822F82958F7080FF13C01EC0F2E04F
:1003C000EF16C1F4822F82958F7080FD0AC015C090
:1003D00080599F4F282F2F7700E01FEFFF24FA94BA
:1003E000B3C0822F90E0013011F48096F3CF805A91
:1003F0009F4FF0CF83E0E81631F4822F90E0013078
:1004000039F74096E7CFE4E0EE1611F000E09CC02B
:10041000013009F04CC0203110F4205F2F77FFEF3E
:10042000FF1629F4822F82958370833039F01F3FA5
:1004300039F4822F82958370813011F4205E2F77FA
:10044000203111F02035C9F41F3F11F480E103C0C1
:10045000812F82958F708F5F61E10E94A007092F25
:10046000903111F41FEF03C0192F1295107FF12E58
:10047000F094003109F068C018C01F3F11F480E10A
:1004800003C0812F82958F70805F61E10E94A00779
:10049000092F903111F41FEF03C0192F1295107F0F
:1004A000F12EF094002309F04FC0205E4CC08FEF76
:1004B000F81629F4822F82958370813039F01F3F1E
:1004C00039F4822F82958370833011F4205A2F776C
:1004D000822F82958F7080FD02C020592F772031A6
:1004E00011F02035C1F41F3F11F480E103C0812FCA
:1004F00082958F70805F61E10E94A007092F903183
:1005000011F41FEF03C0192F1295107FF12EF094F4
:100510000023D1F417C01F3F11F480E103C0812FE5
:1005200082958F708F5F61E10E94A007092F903143
:1005300011F41FEF03C0192F1295107FF12EF094C4
:10054000003111F4205A2F77E1E09E1629F4F09241
:10055000B3001093B40005C0F2E09F1611F418BD6B
:10056000F7BC4B2D4A293C2D3D29932F942B909578
:10057000982190932F01822F82958F708330B1F054
:10058000843028F4813071F0823070F409C08530F5
:1005900081F0853060F0863079F0873081F40BC0CF
:1005A0009A290BC0942B09C09B2907C0DB289D29E1
:1005B00004C0932B02C0CA289C2990932F018EE27D
:1005C00091E00E94AC00802FDF91CF911F910F919D
:1005D000FF90EF90DF90CF90BF90AF909F908F9063
:1005E000089508955F926F927F928F929F92AF923B
:1005F000BF92CF92DF92EF92FF920F931F93CF9310
:10060000DF93EC016B01542EA22EEB80FC800D8158
:100610001E8123E0A216D1F416950795F794E7946E
:10062000C801B70128EE33E040E050E00E94BF0768
:1006300039014A01C801B70128EE33E040E050E03B
:100640000E94BF077B018C01BB2440C084E0A81638
:1006500039F7E4E016950795F794E794EA95D1F712
:1006600074E0CC0CDD1C7A95E1F7DACFCE01652D74
:100670004A2D0E945C01B82EB301C4010E943C07C0
:100680008F819885A985BA858E0D9F1DA01FB11FEA
:100690008F839887A987BA87885E9340A040B0402F
:1006A00090F061E070E080E090E00E943C078F8174
:1006B0009885A985BA85885E9340A040B0408F8315
:1006C0009887A987BA870894C108D108C114D104B2
:1006D00069F684E0A81699F52DC0CE01652D44E099
:1006E0000E945C01B82EB301C4010E943C078F81B7
:1006F0009885A985BA858E0D9F1DA01FB11F8F8378
:100700009887A987BA87885E9340A040B04090F050
:1007100061E070E080E090E00E943C078F81988566
:10072000A985BA85885E9340A040B0408F839887A2
:10073000A987BA87BB2019F080E1B81671F6DF915E
:10074000CF911F910F91FF90EF90DF90CF90BF90CE
:10075000AF909F908F907F906F905F90089580E30F
:1007600091E060E370E042E00E94D40008950F93AE
:100770001F93CF93DF938C0180913B0190913C01BB
:100780008017910724F4E801C81BD90B0EC0081785
:1007900019071CF0C0E0D0E008C0C0912101D09141
:1007A0002201C81BD90BC00FD11F81E691E060E088
:1007B00071E00E940A06AE01662757FD6095762F0C
:1007C00081E691E02AE030E00E94E90680E391E0D2
:1007D000BE0142E023E00E94F20210933C0100932C
:1007E0003B01DF91CF911F910F91089581E691E038
:1007F0000E943905882309F464C081E691E00E94D3
:100800004A05FC01F097EB34F10508F05AC0EC5CA6
:10081000FF4FEE0FFF1F0590F491E02D099480E04B
:1008200090E044C084E090E041C088E090E03EC0A9
:100830008CE090E03BC080E190E038C084E190E043
:1008400035C088E190E032C08CE190E02FC080E2BA
:1008500090E02CC084E290E029C088E290E026C0BD
:100860008CE290E023C080E390E020C084E390E03D
:100870001DC088E390E01AC08CE390E017C080E4CC
:1008800090E014C084E490E011C088E490E00EC0D1
:100890008CE490E00BC080E590E008C084E590E037
:1008A00005C088E590E002C08CE590E00E94B703A7
:1008B000089580E391E061E070E042E023E00E946F
:1008C000F20208950F931F9301E611E0C80140E87A
:1008D00055E260E070E00E94D004C80163E171E07D
:1008E0000E940A0600E311E0C8016AE070E00E947D
:1008F0002101C8010E94420168EE73E080E090E0AF
:100900000E943C07C80164E670E042E023E00E94D8
:10091000F2021F910F9108950E9466070E946204DF
:100920000E94F603FDCF1F920F920FB60F92112473
:100930002F933F934F935F936F937F938F939F93E7
:10094000AF93BF93EF93FF934091C600E0915D0199
:10095000F0915E01CF01019660E270E00E94AC0769
:100960009C0180915F01909160012817390739F04F
:10097000E35CFE4F408330935E0120935D01FF9165
:10098000EF91BF91AF919F918F917F916F915F9107
:100990004F913F912F910F900FBE0F901F90189580
:1009A000AF92BF92CF92DF92EF92FF920F931F937D
:1009B000CF93DF936C017A018B01DC011496AD902B
:1009C000BC901597CB01BA0122E030E040E050E046
:1009D0000E94E107205C3D4B404F5F4FCA01B901C7
:1009E000A80197010E94E107C901DA010197A10955
:1009F000B109292F3A2F4B2F552747FD5A950196BC
:100A0000A11DB11DE5012883E601EE81FF81815022
:100A10008083EA85FB85208141E050E0CA010E8495
:100A200002C0880F991F0A94E2F7282B2083EA85D9
:100A3000FB852081CA010F8402C0880F991F0A9488
:100A4000E2F7282B2083EA85FB858081088802C095
:100A5000440F551F0A94E2F7842B8083DF91CF91D6
:100A60001F910F91FF90EF90DF90CF90BF90AF90CC
:100A70000895DC011296ED91FC91139780A191A14C
:100A8000809622A133A1821B930B60E270E00E944A
:100A9000AC070895CF93DF93FC01C281D3814AA1B3
:100AA0005BA188A199A18417950719F42FEF3FEF57
:100AB0000DC0FE01E40FF51F2081CA01019660E21E
:100AC00070E00E94AC079BA38AA330E0C901DF91CC
:100AD000CF910895FC01A085B18521898C9190E08A
:100AE000022E02C0959587950A94E2F780FFF6CF13
:100AF0000484F585E02D6083089587E291E090936A
:100B00006201809361018DE391E090936401809391
:100B1000630185EC90E0909366018093650184EC1D
:100B200090E0909368018093670180EC90E090934F
:100B30006A018093690181EC90E090936C0180934D
:100B40006B0186EC90E090936E0180936D0184E0E0
:100B500080936F0183E08093700187E0809371013F
:100B600085E08093720108950F931F93CF93DF93D5
:100B70008C01EB0109C02196D801ED91FC91019007
:100B8000F081E02DC801099568816623A1F7DF9106
:100B9000CF911F910F910895EF92FF920F931F93A2
:100BA000CF93DF938C017B01EA010CC0D7016D91DB
:100BB0007D01D801ED91FC910190F081E02DC801FB
:100BC00009952197209791F7DF91CF911F910F9170
:100BD000FF90EF900895DC01ED91FC910280F3818C
:100BE000E02D099508950F931F938C01DC01ED9181
:100BF000FC910190F081E02D6DE00995D801ED9117
:100C0000FC910190F081E02DC8016AE009951F91E7
:100C10000F9108950F931F938C010E94EB05C8015B
:100C20000E94F3051F910F9108952F923F924F92CA
:100C30005F926F927F928F929F92AF92BF92CF926C
:100C4000DF92EF92FF920F931F93DF93CF93CDB775
:100C5000DEB7A0970FB6F894DEBF0FBECDBF1C0164
:100C60006A017B01411551056105710549F4DC01FB
:100C7000ED91FC910190F081E02D60E3099554C065
:100C8000882499245401422E55246624772401E0B7
:100C900010E00C0F1D1F080D191DC701B601A3019F
:100CA00092010E94BF07F80160830894811C911C87
:100CB000A11CB11CC701B601A30192010E94BF078C
:100CC000C901DA016C017D01C114D104E104F10410
:100CD000F1F681E0E82EF12CEC0EFD1EE80CF91C7B
:100CE0003E010894611C711CD501C4010197A10942
:100CF000B1096C01C818D90814C0F601EE0DFF1D2A
:100D000060816A3010F4605D01C0695CD101ED91D1
:100D1000FC910190F081E02DC10109950894E10852
:100D2000F1086E147F0449F7A0960FB6F894DEBF61
:100D30000FBECDBFCF91DF911F910F91FF90EF902C
:100D4000DF90CF90BF90AF909F908F907F906F90EB
:100D50005F904F903F902F900895EF92FF920F93E6
:100D60001F93CF93DF93EC017A018B0177FF0FC0C4
:100D7000E881F9810190F081E02D6DE209951095EF
:100D80000095F094E094E11CF11C011D111DCE01B1
:100D9000B801A7012AE00E941506DF91CF911F91AB
:100DA0000F91FF90EF900895DC012115310541F47A
:100DB000ED91FC910190F081E02D642F099508954B
:100DC0002A30310519F40E94AD0608950E941506D7
:100DD00008950F931F938C010E94D406C8010E94AE
:100DE000F3051F910F9108951F920F920FB60F9266
:100DF00011242F933F938F939F93AF93BF93809131
:100E0000770190917801A0917901B0917A013091A8
:100E10007B010196A11DB11D232F2D5F2D3720F0E1
:100E20002D570196A11DB11D20937B018093770161
:100E300090937801A0937901B0937A018091730126
:100E400090917401A0917501B09176010196A11D58
:100E5000B11D8093730190937401A0937501B093B9
:100E60007601BF91AF919F918F913F912F910F90FC
:100E70000FBE0F901F901895EF92FF920F931F9344
:100E80007B018C018FB7F8944091770150917801E4
:100E90006091790170917A018FBF2FB7F89480919A
:100EA000770190917801A0917901B0917A012FBFDB
:100EB000841B950BA60BB70BE816F9060A071B0750
:100EC00060F71F910F91FF90EF900895789484B58B
:100ED000826084BD84B5816084BD85B5826085BD36
:100EE00085B5816085BDEEE6F0E08081816080831C
:100EF000E1E8F0E08081826080838081816080838E
:100F0000E0E8F0E0808181608083E1EBF0E08081C7
:100F100084608083E0EBF0E0808181608083EAE799
:100F2000F0E0808184608083808182608083808122
:100F3000816080838081806880831092C1000895E1
:100F4000991B79E004C0991F961708F0961B881F1B
:100F50007A95C9F78095089597FB092E07260AD040
:100F600077FD04D049D006D000201AF47095619521
:100F70007F4F0895F6F7909581959F4F0895A1E2D0
:100F80001A2EAA1BBB1BFD010DC0AA1FBB1FEE1F03
:100F9000FF1FA217B307E407F50720F0A21BB30B4E
:100FA000E40BF50B661F771F881F991F1A9469F7CA
:100FB00060957095809590959B01AC01BD01CF0126
:100FC000089597FB092E05260ED057FD04D0D7DFD4
:100FD0000AD0001C38F450954095309521953F4F2C
:100FE0004F4F5F4F0895F6F79095809570956195F6
:100FF0007F4F8F4F9F4F0895AA1BBB1B51E107C026
:10100000AA1FBB1FA617B70710F0A61BB70B881F98
:10101000991F5A95A9F780959095BC01CD01089527
:10102000EE0FFF1F0590F491E02D0994F894FFCF87
:1010300049207468696E6B206368616E676520691A
:101040007320005374657070657220746573742129
:0E105000006000000000006A05B405CC050039
:00000001FF
